:100000000010001003010000D5000000D700000020
:1000100000000000000000000000000051EDFFEFB4
:10002000000000000000000000000000D9000000F7
:100030000000000000000000DB000000DD00000008
:10004000DF000000DF00000000000000C10B000026
:10005000DF000000DF0000000000000000000000E2
:10006000DF000000DF000000DF000000DF00000014
:10007000DF000000DF00000000000000DF000000E3
:100080000000000000000000000000000000000070
:100090000000000000000000000000000000000060
:1000A000DF000000DF000000DF000000DF000000D4
:1000B000DF000000DF000000DF000000DF000000C4
:1000C0006015000000010010000000000001001099
:1000D00048010000FEE7FEE7FEE7FEE7FEE7FEE779
:1000E000002310B5934203D21C585C500433F9E747
:1000F00010BD00238B4203D200221A500433F9E7CB
:10010000704710B50C4C0D4B9C4206D220686168BC
:10011000A268FFF7E5FF0C34F5E7094B9C4205D2D6
:1001200020686168FFF7E5FF0834F6E700F074FC2B
:1001300000F07EFEFEE7C046C0000000CC000000DC
:10014000D4000000FFFFFFFFFFFFFFFFFFFFFFFFE7
:10015000FFFFFFFFFFFFFFFFFFFFFFFFFFFFFFFFAF
:10016000FFFFFFFFFFFFFFFFFFFFFFFFFFFFFFFF9F
:10017000FFFFFFFFFFFFFFFFFFFFFFFFFFFFFFFF8F
:10018000FFFFFFFFFFFFFFFFFFFFFFFFFFFFFFFF7F
:10019000FFFFFFFFFFFFFFFFFFFFFFFFFFFFFFFF6F
:1001A000FFFFFFFFFFFFFFFFFFFFFFFFFFFFFFFF5F
:1001B000FFFFFFFFFFFFFFFFFFFFFFFFFFFFFFFF4F
:1001C000FFFFFFFFFFFFFFFFFFFFFFFFFFFFFFFF3F
:1001D000FFFFFFFFFFFFFFFFFFFFFFFFFFFFFFFF2F
:1001E000FFFFFFFFFFFFFFFFFFFFFFFFFFFFFFFF1F
:1001F000FFFFFFFFFFFFFFFFFFFFFFFFFFFFFFFF0F
:10020000FFFFFFFFFFFFFFFFFFFFFFFFFFFFFFFFFE
:10021000FFFFFFFFFFFFFFFFFFFFFFFFFFFFFFFFEE
:10022000FFFFFFFFFFFFFFFFFFFFFFFFFFFFFFFFDE
:10023000FFFFFFFFFFFFFFFFFFFFFFFFFFFFFFFFCE
:10024000FFFFFFFFFFFFFFFFFFFFFFFFFFFFFFFFBE
:10025000FFFFFFFFFFFFFFFFFFFFFFFFFFFFFFFFAE
:10026000FFFFFFFFFFFFFFFFFFFFFFFFFFFFFFFF9E
:10027000FFFFFFFFFFFFFFFFFFFFFFFFFFFFFFFF8E
:10028000FFFFFFFFFFFFFFFFFFFFFFFFFFFFFFFF7E
:10029000FFFFFFFFFFFFFFFFFFFFFFFFFFFFFFFF6E
:1002A000FFFFFFFFFFFFFFFFFFFFFFFFFFFFFFFF5E
:1002B000FFFFFFFFFFFFFFFFFFFFFFFFFFFFFFFF4E
:1002C000FFFFFFFFFFFFFFFFFFFFFFFFFFFFFFFF3E
:1002D000FFFFFFFFFFFFFFFFFFFFFFFFFFFFFFFF2E
:1002E000FFFFFFFFFFFFFFFFFFFFFFFFFFFFFFFF1E
:1002F000FFFFFFFFFFFFFFFFFFFFFFFFFFFFFFFF0E
:10030000031C5E220020203BDBB29A424041C0B277
:100310007047092803D0202801D0002000E00120E8
:1003200070470A2803D00D2801D0002000E00120EA
:100330007047000010B5041C081E29D000200A2AAE
:1003400026D930230B7048334B70124B220F9A5C26
:100350000F308A702201120F9A5CCA702202120FAB
:100360009A5C0A712203120F9A5C4A712204120FDE
:100370009A5C8A712205120F9A5CCA712206120FCA
:1003800004409A5C1B5D0A724B7200230E388B721C
:1003900010BDC046841100002A23092801D830303E
:1003A000C3B2181C7047000070B5022802DC01209F
:1003B000404234E048680E1C00F0F8FDC5B2041C51
:1003C000112DF4D8B06800F0F1FDA026431E98412D
:1003D000E4B2C0B236063055114800F0DFFB0A2106
:1003E000281C00F06AFEC0B2FFF7D6FF00F0C2FB87
:1003F000281C0A2100F061FEC8B2FFF7CDFF00F013
:10040000B9FB084800F0CAFB305D431E9841FFF776
:10041000C3FF00F0AFFB0A2000F0ACFB002070BD72
:10042000B3110000C411000038B5012802DC01201E
:1004300040422CE0486800F0B9FDC5B2041C112D03
:10044000F5D8134800F0AAFB0A21281C00F035FE5D
:10045000C0B2FFF7A1FF00F08DFB281C0A2100F0BD
:100460002CFEC8B2FFF798FF00F084FB094800F0AB
:1004700095FBA023E4B21B06185D431E9841FFF7CD
:100480008BFF00F077FB0A2000F074FB002038BDE2
:10049000CC110000C4110000F7B50F1C00901A4CDD
:1004A000012818DC251C194800F078FB0835443475
:1004B0002B1C083B186800F071FB154800F06EFB20
:1004C000286800F06BFB0C350A2000F053FBA542B6
:1004D000EED1002016E000264B6801930C257543F1
:1004E0000198615900F06EFD002806D1009864194A
:1004F000391D63680138984704E00136052EEDD1B7
:1005000001204042FEBDC046E0120000DC110000A8
:10051000FB110000A02008B5000600F0DBFB02483C
:10052000024900F063F908BDFE11000099040000C3
:1005300008B50A1C1F2806D8034B195CFF2902D0F6
:10054000024800F0D1FB08BD9411000000400440B7
:1005500038B5022802DC0120404231E048680D1C19
:1005600000F024FDC4B2112CF5D8A86800F01EFDDF
:10057000C1B2051C0329EED8201CFFF7D9FF114892
:1005800000F00CFB0A21201C00F097FDC0B2FFF721
:1005900003FF00F0EFFA201C0A2100F08EFDC8B224
:1005A000FFF7FAFE00F0E6FA074800F0F7FAE8B2C3
:1005B000FFF7F2FE00F0DEFA0A2000F0DBFA00207E
:1005C00038BDC046031200001712000010B580228B
:1005D000A024920124060123002903D08340A158BE
:1005E0000B4303E08340A15899430B1CA35010BD5B
:1005F0008023A0229B011206D358C340181C01235C
:100600001840704738B5022802DC0120404232E031
:1006100048680D1C00F0CAFCC4B2112CF5D8A868BB
:1006200000F0C4FC411E8841C1B2201CFFF7CEFF80
:10063000114800F0B3FA0A21201C00F03EFDC0B2C0
:10064000FFF7AAFE00F096FA201C0A2100F035FD03
:10065000C8B2FFF7A1FE00F08DFA084800F09EFA3C
:10066000201CFFF7C5FFFFF797FE00F083FA0A2072
:1006700000F080FA002038BD1E1200003A1200007F
:1006800038B50024E5B20A21281C00F016FDC0B2DE
:10069000FFF782FE00F06EFA281C0A2100F00DFD23
:1006A000C8B2FFF779FE00F065FA104800F076FA5C
:1006B000281CFFF79DFF0E4B002800D10D4B181C86
:1006C00000F06CFA0C4800F069FAA0231B06185DD4
:1006D0000134431E9841FFF75FFE00F04BFA0A20F9
:1006E00000F048FA122CCDD1002038BD391200009C
:1006F0003112000035120000C41100008021044AAC
:10070000C902D36F1B031B0B0B43D3677047C04653
:100710000480044008B5044800F040FA0A2000F0C4
:1007200029FA002008BDC0461C13000008B500F0DF
:1007300055FA00F05BF9FFF7E1FF00F07BF900F0FC
:1007400085F90B480B4900F077F8FFF7E3FE0A48FC
:100750000A4900F04BF8002802D1094800F01EFABF
:10076000084800F083F800F08BF8002008BDC04670
:100770004D0B0000750B0000211300001507000051
:10078000291300004B13000038B5074B051C9A6C69
:100790001C1C002A06D02878002803D0A36C013541
:1007A0009847F8E7002038BD0001001008B5034B5A
:1007B0009B6C002B00D0984708BDC046000100107C
:1007C00038B50024084DEB6C9C420ADA14206043D3
:1007D00050302818FFF7D8FFAB6C0A209847013437
:1007E000F0E7002038BDC0460001001070B5031EC0
:1007F0001ED00B1E1CD00F4C0023E26C082A17D011
:100800001A1C14235343E618356E002D0CD10D1C11
:100810005033011C0F22E01800F020FCE36C356619
:100820000133E364012303E00132082AE9D1002304
:10083000181C70BD0001001070B5094C061C0D1C81
:10084000201C0021F02200F0EFFA002E00D0666498
:10085000002D00D0A56403490348FFF7C7FF70BD12
:1008600000010010C10700006713000008B5011C5B
:1008700002480322403000F0F1FB08BD00010010E7
:10088000F0B593B009A80021242200F0CDFA534F0F
:10089000381C4030FFF778FF7B6C3D1C002BF6D0F6
:1008A0003B1C00223C1C3F331A706B6C9847061CA3
:1008B000FFF72FFD002809D0AC4232D9631E18780B
:1008C000FFF727FD00282CD1203006E0301CFFF771
:1008D00017FD0190002805D0301CFFF767FF267038
:1008E00001341EE0082E0FD1AC421AD9301CFFF79C
:1008F0005DFF2020FFF75AFF301CFFF757FF6B46C4
:100900001B79013C63700CE0301CFFF70AFD0028E6
:1009100007D00A20FFF74AFF6B461B79237001348A
:1009200003E02B1C3F339C42BFD3AC42AFD000242A
:1009300001222B1C0994197800290FD0202903D1FA
:1009400000221A70013207E0002A05D0A20009A98E
:100950008A185360002201340133ECE70994002C1B
:1009600095D02E1CF035503601950A98311C00F0B8
:1009700029FB051E0ED13369002B0BD0201C0AA9C0
:1009800098478023041C1B06984207D0002809D1F1
:10099000134804E0019B14369E42E6D11148FFF74C
:1009A000F3FE74E703A81049082200F039FA291C65
:1009B000102205A800F038FA03A800F025FB03ABCD
:1009C000191818231A1A201CFFF7B4FC03A8FFF704
:1009D000DBFEBB6C0A20984759E7C04600010010B7
:1009E0006C130000731300004F1300008021074AAE
:1009F000D36F1B031B0B0B43D367054B054AC13950
:100A00001A60E022520099507047C04604800440AA
:100A100000C000400400FFFF08B500F091F908BDD8
:100A2000034B01201A1C4432107099647047C04671
:100A3000F0010010012208B5024B03481A6000F0D3
:100A400083F908BD94800440004006407FB501ADA5
:100A50002A1C164B164E13CB13C233685B6A1B68F5
:100A60009847402820D83368124C5B6A211D5B6888
:100A7000114898472060002816D000F01FF933680D
:100A800028605B6A20689B68291C9847002805D06D
:100A9000FF230A4A13600A4A034013600822094BE5
:100AA0004C341A60012323707FBDC04694130000AC
:100AB000F81FFF1FF001001000400640F0800440C6
:100AC000F480044000E100E030B50F4D87B02B1CEE
:100AD0004C331B78002B15D0019000F095FA0323BE
:100AE00001AC2381023B6381084B0022E3602B1C95
:100AF00044331A70064B60601B6828685B6A211CCF
:100B00009B69984707B030BDF0010010210A000032
:100B1000F81FFF1F0C4A131C4C331978002399420D
:100B200010D0031C002808D1111C44310978002979
:100B300001D0936C06E030BFF4E7591E002B01D0C2
:100B40000B1CF1E7181C7047F001001008B5074BAB
:100B500000201A1C4C321278824205D0044A1868D0
:100B60001268526AD268904708BDC046F001001072
:100B7000F81FFF1F08B5074B1A1C4C321278002AC9
:100B800006D0054A011C12681868526A126990471B
:100B900008BDC046F0010010F81FFF1F10B500246B
:100BA000064B4C331B78A34205D0FFF78DFF201C6A
:100BB000FFF7B0FF041C201C10BDC046F001001060
:100BC00008B5044B044A1B6810685B6ADB699847E8
:100BD00008BDC046F81FFF1FF001001008B500F067
:100BE0006DF8014B186008BD440200100022034B51
:100BF00018645A6401325A647047C0460080044049
:100C00000022034B18675A6701325A677047C04683
:100C10000080044008B5074B596A1F23CA05120F0C
:100C20001940054B920001314900D05800F045FAB7
:100C300008BDC04600800440A0130000084B1A6C99
:100C400003231340012B06D0032B06D00020002BDA
:100C500005D1044803E0044B00E0044B18687047DA
:100C600000800440001BB7008C13000090130000AC
:100C7000044B10B59C68FFF7E1FF1F2323400133AD
:100C8000584310BD0080044008B50A4B1A6F032377
:100C90001340022B06D0032B07D0012B08D1FFF7FE
:100CA000CDFF06E0FFF7B6FF03E0FFF7E1FF00E04E
:100CB000014808BD00800440001BB70008B5FFF7DD
:100CC000E3FF034B996FC9B200F0F7F908BDC046C6
:100CD000008004404021034AD36F1B031B0B0B43CE
:100CE000D3677047048004408900411818200B68BE
:100CF000D20083431A430A607047000010B50220F7
:100D000000F07AF80020FFF771FF0B4B80201A6982
:100D100001221A6100F05EF84123084C8020A36094
:100D200000F06AF80123E2681A42FBD0034A03206C
:100D30009367FFF765FF10BD00000440008004408A
:100D400008B5FFF7DBFF08BD70B51A4C0E21A042B5
:100D500005D0194BC1184A4251411023591A012696
:100D60008E40164D164BEA6F1203120B3243EA67A0
:100D7000A04208D15968134A0A405A605A680821AB
:100D8000D204D20C12E0104A5968904207D10F4A9F
:100D90000A405A605A681021D204D20C06E00C4A6C
:100DA0000A4020215A605A68D204D20C0A435A6081
:100DB00070BDC046004006400080F9BF048004407A
:100DC00000800440F71F000000800640EF1F000075
:100DD000DF1F00008E22054992008B581843044BF8
:100DE0001840044B184388507047C04600800440A8
:100DF000EF800000106D00008E2110B5054C8900B9
:100E00006358054A134002409343044A1343635016
:100E100010BDC04600800440EF800000106D00004F
:100E200008B500F084F908BD08B500F096F908BDD2
:100E300008B5FFF77BFC08BD0A4B1B1880331B78F5
:100E40009A0601D5303808E01A0701D5573804E072
:100E50003738DB0601D401204042884201DB012003
:100E600040427047E0130000F0B5031C161C85B02B
:100E70000290039118785F1C00281FD001252A4A90
:100E80001218803212782A4201D03B1CF2E7302837
:100E900014D158782022011C91439F1C0A1E582A05
:100EA00008D1311C483A91430DD1DF1C98780D1CB4
:100EB000161C08E0002E06D1083604E00025002E9E
:100EC00001D1351C0A26002400940194311CFFF73F
:100ED000B3FF002811DB744304190098230C7043FE
:100EE0001B180093009A114BA4B29A4201D9012316
:100EF0000193387801250137E8E7039B002B05D0E3
:100F0000029B002D00D07B1E039A1360019B002BD7
:100F100005D022220120064B40421A6002E0009BCD
:100F20001804204305B0F0BDE0130000FFFF0000EF
:100F300040020010F7B50E1C071C011C08784D1C60
:100F400000280ED0164B1B1880331C7801231C4040
:100F500001D0291CF2E72B2805D08024A4002D28DD
:100F600001D00D1C0024281C01A9FFF77DFF002ED5
:100F700004D0019BAB4200D13B1C3360A30508D5D4
:100F8000404200280BDD22228020064B00061A601A
:100F900005E0002803DA2222024B03481A60FEBD56
:100FA000E013000040020010FFFFFF7F38B5044C43
:100FB000002125680A22FFF7BDFF256038BDC04625
:100FC00040020010031C0B4310B59B070CD10268B4
:100FD0000B689A4208D10A4BD3189343094A13422B
:100FE00002D104300431F2E70022835C8C5CA3421E
:100FF00001D0181B03E00132002BF6D1181C10BDE4
:10100000FFFEFEFE8080808010B5431C820706D064
:101010000130421E1278002AF8D1C01A18E0026886
:101020000C490D4C51189143214201D10430F6E78F
:10103000D4B2411C002C0AD0FF242402811C22427D
:1010400005D0FF242404C11C224200D0011DC81A6F
:1010500010BDC046FFFEFEFE8080808070B5041C7F
:101060000C43031CA4070CD1032A0AD90D680F4CAA
:101070000F4E2C19AC43344203D120C30431043A3F
:10108000F2E7013A541C10D00C7801335D1E2C702D
:101090000131551E002C06D19A18934205D000212B
:1010A00019700133F9E72A1CECE770BDFFFEFEFE64
:1010B0008080808003000B4321D4002931D001229D
:1010C000D207030901E0090112099942FBD943083B
:1010D00001E0490052089942FBD900E04908401A52
:1010E00007D35241FAD301461046704749084018C9
:1010F000F7D29218FAD34018014610467047CB0F2A
:1011000000D04942021000D54042534008B5FFF7D5
:10111000D4FF0CBC521000D34042002A00D54942F3
:101120001847F446002000F001F8604770478446F5
:10113000830708D18B0706D1131F04D304C904C049
:10114000043BFBD21A1D524205D0891A801A8B5CCF
:1011500083540132FBD1604670478446043A09D378
:10116000830707D109060B0A19430B0C1943043AEC
:1011700002C0FCD2043203D001700130013AFBD12D
:101180006046704730313233343536373839414272
:1011900043444546110B06050403100F0E0D0807C6
:1011A0000201120A09001E1D1C1B1A191817161518
:1011B000140C136770696F2077726974653A207038
:1011C000696E3D002076616C75653D006770696FE2
:1011D00020726561643A2070696E3D006770696FC6
:1011E000207375622D636F6D6D616E64206973206D
:1011F000666F6C6C6F77696E670A003A20006770E3
:10120000696F006770696F206D6F64652073657426
:101210003A2070696E3D00206D6F64653D00677017
:10122000696F20646972207365743A2070696E3D3D
:10123000006F757400696E20003A206469723D0089
:101240006C6973740073686F77206770696F2070C2
:101250006F7274206C69737420616E6420697427E6
:101260007320696E66726F6D6174696F6E2E006DAA
:101270006F646500736574206770696F20706F72AA
:1012800074206D6F64652E0064697200736574204C
:101290006770696F20706F7274206469726563741F
:1012A000696F6E2E0072656164007265616420670B
:1012B00070696F20696E7075742076616C75652E2B
:1012C0000077726974650077726974652067706968
:1012D0006F206F75747075742076616C75652E0063
:1012E0004012000081060000451200006F1200004D
:1012F000510500007412000088120000050600006D
:101300008C120000A512000029040000AA1200009F
:10131000C1120000A9030000C7120000302E3031B6
:101320000076657273696F6E007368656C6C5F61DF
:1013300064645F636F6D6D616E6428766572736956
:101340006F6E29206572726F720A000A243E002DAA
:101350003E206E673A200000000000000000000000
:101360000000000000000068656C70002D3E206FDA
:101370006B0A002D3E20636F6D6D616E6420697392
:10138000206E6F7420666F756E640A00001BB700D4
:10139000000000000000000000C201000100000089
:1013A00000000000C027090090051000C05C150077
:1013B000F0B31A00200B2000009F2400E032290027
:1013C000C0C62D0050973100E067350070383900F5
:1013D00000093D004016400080234300C030460015
:1013E00000000000000000000000000000000000FD
:1013F00000000000000000000000000000000000ED
:1014000000000000000000000000000000000000DC
:1014100000000000000000000000000000000000CC
:1014200000000000000000000000000000000000BC
:1014300000000000000000000000000000000000AC
:10144000000000000000000000000000000000009C
:10145000000000000000000000000000000000008C
:101460004040404040404040404141414141404077
:10147000404040404040404040404040404040406C
:101480000502020202020202020202020202020239
:101490002020202020202020202002020202020200
:1014A000029090909090901010101010101010104A
:1014B0001010101010101010101010020202020272
:1014C00002888888888888080808080808080808A2
:1014D000080808080808080808080802020202406C
:1014E00000000000000000000000000000000000FC
:1014F00000000000000000000000000000000000EC
:1015000000000000000000000000000000000000DB
:1015100000000000000000000000000000000000CB
:1015200000000000000000000000000000000000BB
:1015300000000000000000000000000000000000AB
:10154000000000000000000000000000000000009B
:10155000000000000000000000000000000000008B
:0400000300000103F5
:00000001FF
